ENT00000000004802302550006842529501954       381+00000466392000+00000496230000+00000029838000+00000000000000+00000000000000EUR202510222025123100004952025102222092900001+000000000000009 R+00000000000000000182000000000000000+000007548390004299999999       99999999      00000000000000 00000000000000                                                                                                                                                                                                                                                                                                                                                                                                                                                                                                                                                                                                                                                                                                                                                                                                                                                                                                                                       
COM00000000004802302550006842529501954       SURNOS MARCHANDISES VOYAGENT AUX RISQUES ET PERILS DES DESTINATAIRES (ART                                                                                                                                                                                                                                                                                                                                                                                                                                                                                                                                                                                                                                                                                                                                                                                                                                                                                                                                                                                                                                                                                                                          
COM00000000004802302550006842529501954       SURICLE 100 CC)                                                                                                                                                                                                                                                                                                                                                                                                                                                                                                                                                                                                                                                                                                                                                                                                                                                                                                                                                                                                                                                                                                                                                                                    
COM00000000004802302550006842529501954       SURLE TRANSFERT DE PROPRIETE DE TOUS NOS OUVRAGES ET PRODUITS N'INTER                                                                                                                                                                                                                                                                                                                                                                                                                                                                                                                                                                                                                                                                                                                                                                                                                                                                                                                                                                                                                                                                                                                              
COM00000000004802302550006842529501954       SURVIENT QU'APRES PAIEMENT INTEGRAL DU PRIX                                                                                                                                                                                                                                                                                                                                                                                                                                                                                                                                                                                                                                                                                                                                                                                                                                                                                                                                                                                                                                                                                                                                                        
COM00000000004802302550006842529501954       SURREF COMMANDE ORIGINE 99999999                                                                                                                                                                                                                                                                                                                                                                                                                                                                                                                                                                                                                                                                                                                                                                                                                                                                                                                                                                                                                                                                                                                                                                   
COM00000000004802302550006842529501954       AABLA SOCIETE N'ACCORDE PAS D'ESCOMPTE.                                                                                                                                                                                                                                                                                                                                                                                                                                                                                                                                                                                                                                                                                                                                                                                                                                                                                                                                                                                                                                                                                                                                                            
COM00000000004802302550006842529501954       PMDPENALITES DE RETARD : INTERET AU TAUX DE REFINANCEMENT DE LA BCE                                                                                                                                                                                                                                                                                                                                                                                                                                                                                                                                                                                                                                                                                                                                                                                                                                                                                                                                                                                                                                                                                                                                
COM00000000004802302550006842529501954       PMDMAJORE DE 8 POINTS DE POURCENTAGE AVEC UN MINIMUM LEGAL FIXE A 3                                                                                                                                                                                                                                                                                                                                                                                                                                                                                                                                                                                                                                                                                                                                                                                                                                                                                                                                                                                                                                                                                                                                
COM00000000004802302550006842529501954       PMDFOIS LE TAUX D'INTERET LEGAL.                                                                                                                                                                                                                                                                                                                                                                                                                                                                                                                                                                                                                                                                                                                                                                                                                                                                                                                                                                                                                                                                                                                                                                   
COM00000000004802302550006842529501954       PMTCE MONTANT EST COMPLETE D'UN FORFAIT DE 40 EUROS POUR FRAIS                                                                                                                                                                                                                                                                                                                                                                                                                                                                                                                                                                                                                                                                                                                                                                                                                                                                                                                                                                                                                                                                                                                                     
COM00000000004802302550006842529501954       PMTDE RECOUVREMENT.                                                                                                                                                                                                                                                                                                                                                                                                                                                                                                                                                                                                                                                                                                                                                                                                                                                                                                                                                                                                                                                                                                                                                                                
COM00000000004802302550006842529501954       SURSERVICE CLIENT : 0472662180 RECOUVREMENT : 0130662327                                                                                                                                                                                                                                                                                                                                                                                                                                                                                                                                                                                                                                                                                                                                                                                                                                                                                                                                                                                                                                                                                                                                           
COM00000000004802302550006842529501954       SUR      6 ************ARTICLES NON ACCEPTES*********        0,00                                                                                                                                                                                                                                                                                                                                                                                                                                                                                                                                                                                                                                                                                                                                                                                                                                                                                                                                                                                                                                                                                                                                  
COM00000000004802302550006842529501954       SURTOTAL         713                                                                                                                                                                                                                                                                                                                                                                                                                                                                                                                                                                                                                                                                                                                                                                                                                                                                                                                                                                                                                                                                                                                                                                               
COM00000000004802302550006842529501954       SURN. FOURNISSEUR    EDITEUR         FORTC     FORHT     NETTC     NETHT                                                                                                                                                                                                                                                                                                                                                                                                                                                                                                                                                                                                                                                                                                                                                                                                                                                                                                                                                                                                                                                                                                                           
COM00000000004802302550006842529501954       SUR20250955646 HACHETTE LITTERAT    372,70    351,88    234,01    220,86                                                                                                                                                                                                                                                                                                                                                                                                                                                                                                                                                                                                                                                                                                                                                                                                                                                                                                                                                                                                                                                                                                                           
COM00000000004802302550006842529501954       SUR20251022840 BAMBOO ESPACE CUL   1175,90   1114,67    720,74    683,20                                                                                                                                                                                                                                                                                                                                                                                                                                                                                                                                                                                                                                                                                                                                                                                                                                                                                                                                                                                                                                                                                                                           
COM00000000004802302550006842529501954       SUR20251271343 HATIER ESP.CULTUR    956,48    906,63    580,06    549,82                                                                                                                                                                                                                                                                                                                                                                                                                                                                                                                                                                                                                                                                                                                                                                                                                                                                                                                                                                                                                                                                                                                           
COM00000000004802302550006842529501954       SUR20250190445 LA DIFF ESPACE CU    746,30    700,24    465,37    436,70                                                                                                                                                                                                                                                                                                                                                                                                                                                                                                                                                                                                                                                                                                                                                                                                                                                                                                                                                                                                                                                                                                                           
COM00000000004802302550006842529501954       SUR20251303010 DELSOL               442,86    423,36    274,21    262,12                                                                                                                                                                                                                                                                                                                                                                                                                                                                                                                                                                                                                                                                                                                                                                                                                                                                                                                                                                                                                                                                                                                           
COM00000000004802302550006842529501954       SUR20250191643 GLENAT ESP.CULT      355,95    337,39    217,77    206,43                                                                                                                                                                                                                                                                                                                                                                                                                                                                                                                                                                                                                                                                                                                                                                                                                                                                                                                                                                                                                                                                                                                           
COM00000000004802302550006842529501954       SUR20250955645 HACHETTE ILLUSTRE   2126,02   1986,16   1328,31   1240,90                                                                                                                                                                                                                                                                                                                                                                                                                                                                                                                                                                                                                                                                                                                                                                                                                                                                                                                                                                                                                                                                                                                           
COM00000000004802302550006842529501954       SUR20252622242 HARLEQUIN             39,70     37,64     23,84     22,59                                                                                                                                                                                                                                                                                                                                                                                                                                                                                                                                                                                                                                                                                                                                                                                                                                                                                                                                                                                                                                                                                                                           
COM00000000004802302550006842529501954       SUR20253861601 DILISCO L&E           41,95     39,77     25,19     23,87                                                                                                                                                                                                                                                                                                                                                                                                                                                                                                                                                                                                                                                                                                                                                                                                                                                                                                                                                                                                                                                                                                                           
COM00000000004802302550006842529501954       SUR20250306341 LAROUSSE ESPACE C    621,74    574,14    380,55    351,43                                                                                                                                                                                                                                                                                                                                                                                                                                                                                                                                                                                                                                                                                                                                                                                                                                                                                                                                                                                                                                                                                                                           
COM00000000004802302550006842529501954       SUR20250306344 MILAN ESPACE CULT    514,90    484,63    318,06    299,40                                                                                                                                                                                                                                                                                                                                                                                                                                                                                                                                                                                                                                                                                                                                                                                                                                                                                                                                                                                                                                                                                                                           
COM00000000004802302550006842529501954       SUR            AUTRES               636,37    591,88    394,19    366,60                                                                                                                                                                                                                                                                                                                                                                                                                                                                                                                                                                                                                                                                                                                                                                                                                                                                                                                                                                                                                                                                                                                           
COM00000000004802302550006842529501954       SUR            TOT HORS FR EXPED   8030,87   7548,39   4962,30   4663,92                                                                                                                                                                                                                                                                                                                                                                                                                                                                                                                                                                                                                                                                                                                                                                                                                                                                                                                                                                                                                                                                                                                           
REF00000000004802302550006842529501954       04GSR                                 20251022                                                                                                                                                                                                                                                                                                                                                                                                                                                                                                                                                                                                                                                                                                                                                                                                                                                                                                                                                                                                                                                                                                                                                     
REF00000000004802302550006842529501954       VN 2828                               20251022                                                                                                                                                                                                                                                                                                                                                                                                                                                                                                                                                                                                                                                                                                                                                                                                                                                                                                                                                                                                                                                                                                                                                     
REF00000000004802302550006842529501954       ON SR                                 20251022                                                                                                                                                                                                                                                                                                                                                                                                                                                                                                                                                                                                                                                                                                                                                                                                                                                                                                                                                                                                                                                                                                                                                     
REF00000000004802302550006842529501954       DQ 29530002                           20251022                                                                                                                                                                                                                                                                                                                                                                                                                                                                                                                                                                                                                                                                                                                                                                                                                                                                                                                                                                                                                                                                                                                                                     
ADR00000000004802302550006842529501954       3025500068425SAS BOURGOIN DISTRIBUTION          ESP CUL LECLERC                    15 AV HENRI BARBUSSE                                                  BOURGOIN JALLIEU                   38300    FR 3025500068425SAS BOURGOIN DISTRIBUTION          ESP CUL LECLERC                    15 AV HENRI BARBUSSE                                                  BOURGOIN JALLIEU                   38300    FR 5038770293010955600100HACHETTE LIVRE SA                                                     1 AVENUE GUTENBERG                                                    MAUREPAS CEDEX                     78316    FR 0130662066          01306623276020601473010955600207HACHETTE LIVRE SA                                                     58 RUE JEAN BLEUZEN                CS 700007                          VANVES CEDEX                       92178    FR SA                            6260976 EUR EURRCS PARIS B 602 060 147       FR04602060147FR74503877029RCS PARIS B 602 060 147                                                                                                                                                                                       
AD200000000004802302550006842529501954       3025500068425SAS BOURGOIN DISTRIBUTION          ESP CUL LECLERC                    15 AV HENRI BARBUSSE                                                  BOURGOIN JALLIEU                   38300    FR 5038770293010955600100HACHETTE LIVRE SA                                                     1 AVENUE GUTENBERG                                                    MAUREPAS CEDEX                     78316    FR 602060147                                                                                                                                                                                                                 3010955600100HACHETTE LIVRE SA                                                     1 AVENUE GUTENBERG                                                    MAUREPAS CEDEX                     78316    FR 602060147                                                                                                                                                                                                                                                                                                                               
LIG00000000004802302550006842529501954       0000000019782226498922UVAMPY NOUVEAUX VOISINS CHEZ LES HUM428014000550000000000500000000000001033000000000001090000000000000644000+00000003220000+000000003890000376500001ON                20251231+00000003397000PRIOU-T+THITAUME                   ALBIN MICHEL - ALB.M.BD            N000000000100000                                                                                                                                                                                                                                                                                                                                                                                                                                                                                                                                                                                                                                                                                                                                                                                                                                                                                          
LIG00000000004802302550006842529501954       0000000029782226502469UDIABOLIQUE DENTISTE EDITION 2025 WI768969200550000000000100000000000000749000000000000790000000000000468000+00000000468000+000000002810000375000001ON                20251231+00000000494000COLLECTIF                          ALBIN MICHEL - ALB.M.JEUNESSE      N000000000100000                                                                                                                                                                                                                                                                                                                                                                                                                                                                                                                                                                                                                                                                                                                                                                                                                                                                                          
LIG00000000004802302550006842529501954       0000000039782226497079UMON TABLEAU DU DODO AU LIT PETITE S257631900550000000000300000000000000938000000000000990000000000000586000+00000001758000+000000003520000375000001ON                20251231+00000001855000VAN GENECHTEN-G                    ALBIN MICHEL - ALB.M.JEUNESSE      N000000000100000                                                                                                                                                                                                                                                                                                                                                                                                                                                                                                                                                                                                                                                                                                                                                                                                                                                                                          
LIG00000000004802302550006842529501954       0000000049782226499776UPUZZLES DUO PETITE SOURIS A QUI EST525517602000000000000100000000000000992000000000001190000000000000620000+00000000620000+000000003720000375000001ON                20251231+00000000744000VAN GENECHTEN-G                    ALBIN MICHEL - ALB.M.JEUNESSE      N000000000100000                                                                                                                                                                                                                                                                                                                                                                                                                                                                                                                                                                                                                                                                                                                                                                                                                                                                                          
LIG00000000004802302550006842529501954       0000000059782226502483URATBURGER EDITION 2025 WITTY POCHE 768932300550000000000100000000000000749000000000000790000000000000468000+00000000468000+000000002810000375000001ON                20251231+00000000494000WALLIAMS-D+LE PLOUHINEC-           ALBIN MICHEL - ALB.M.JEUNESSE      N000000000100000                                                                                                                                                                                                                                                                                                                                                                                                                                                                                                                                                                                                                                                                                                                                                                                                                                                                                          
LIG00000000004802302550006842529501954       0000000069782226502049USOEURS D UN ETE                    747078800550000000000200000000000001602000000000001690000000000001001000+00000002002000+000000006010000375000001ON                20251231+00000002112000BLUME-J                            ALBIN MICHEL - ALB.M.JEUNESSE      N000000000100000                                                                                                                                                                                                                                                                                                                                                                                                                                                                                                                                                                                                                                                                                                                                                                                                                                                                                          
LIG00000000004802302550006842529501954       0000000079782226439987USUPERSTARS FOOT MBAPPE             764011600550000000000100000000000000749000000000000790000000000000468000+00000000468000+000000002810000375000001ON                20251231+00000000494000COLLECTIF                          ALBIN MICHEL - ALB.M.JEUNESSE      N000000000100000                                                                                                                                                                                                                                                                                                                                                                                                                                                                                                                                                                                                                                                                                                                                                                                                                                                                                          
LIG00000000004802302550006842529501954       0000000089782226451262USUPERSTARS FOOT ZIDANE             453882400550000000000100000000000000749000000000000790000000000000468000+00000000468000+000000002810000375000001ON                20251231+00000000494000OLDFIELD-T+OLDFIELD-M              ALBIN MICHEL - ALB.M.JEUNESSE      N000000000100000                                                                                                                                                                                                                                                                                                                                                                                                                                                                                                                                                                                                                                                                                                                                                                                                                                                                                          
LIG00000000004802302550006842529501954       0000000099782226500052UWENDIE RENARD                      767307300550000000000100000000000000749000000000000790000000000000468000+00000000468000+000000002810000375000001ON                20251231+00000000494000BILLIOUD-J                         ALBIN MICHEL - ALB.M.JEUNESSE      N000000000100000                                                                                                                                                                                                                                                                                                                                                                                                                                                                                                                                                                                                                                                                                                                                                                                                                                                                                          
LIG00000000004802302550006842529501954       0000000109782226499493UJ ATTENDS UN ENFANT EDITION 2025   503034200550000000000100000000000002834000000000002990000000000001788000+00000001788000+000000010460000369000001ON                20251231+00000001886000PERNOUD-L+PERNOUD-C                ALBIN MICHEL - ALB.M.PRATIQUE      N000000000100000                                                                                                                                                                                                                                                                                                                                                                                                                                                                                                                                                                                                                                                                                                                                                                                                                                                                                          
LIG00000000004802302550006842529501954       0000000119782226493200UMEILLEUR MEDICAMENT C EST VOUS EDIT650976500550000000000200000000000001981000000000002090000000000001250000+00000002500000+000000007310000369000001ON                20251231+00000002638000SALDMANN-F                         ALBIN MICHEL - ALB.M.PRATIQUE      N000000000100000                                                                                                                                                                                                                                                                                                                                                                                                                                                                                                                                                                                                                                                                                                                                                                                                                                                                                          
LIG00000000004802302550006842529501954       0000000129782386040177UTRAQUE DANS L'ESPACE               452942300550000000000300000000000002550000000000002690000000000001568000+00000004704000+000000009820000385000001ON                20251231+00000004963000BALDIE-C+PARK-M                    AVENT.AILLEURS - AVENT.AILLEURS    N000000000100000                                                                                                                                                                                                                                                                                                                                                                                                                                                                                                                                                                                                                                                                                                                                                                                                                                                                                          
LIG00000000004802302550006842529501954       0000000139782818986288UDRED SCOTT - V01                   690977000550000000000200000000000001507000000000001590000000000000927000+00000001854000+000000005800000385000001ON                20251231+00000001956000COLLECTIF                          BAMBOO - BAMB.GD.ANGLE             N000000000100000                                                                                                                                                                                                                                                                                                                                                                                                                                                                                                                                                                                                                                                                                                                                                                                                                                                                                          
LIG00000000004802302550006842529501954       0000000149791041111657UWHISKY - HISTOIRE COMPLETE         747337200550000000000200000000000001602000000000001690000000000000985000+00000001970000+000000006170000385000001ON                20251231+00000002078000DUHAMEL-B+RATTE-D                  BAMBOO - BAMB.GD.ANGLE             N000000000100000                                                                                                                                                                                                                                                                                                                                                                                                                                                                                                                                                                                                                                                                                                                                                                                                                                                                                          
LIG00000000004802302550006842529501954       0000000159791041109333UDERANGEE - T03                     487718800550000000000200000000000001697000000000001790000000000001044000+00000002088000+000000006530000385000001ON                20251231+00000002203000MANON+GREG BLONDIN                 BAMBOO - BAMBOO                    N000000000100000                                                                                                                                                                                                                                                                                                                                                                                                                                                                                                                                                                                                                                                                                                                                                                                                                                                                                          
LIG00000000004802302550006842529501954       0000000169791041113989UGAME AU VERT - T01 - PRIX DECOUVERT759538300550000000000200000000000000938000000000000990000000000000577000+00000001154000+000000003610000385000001ON                20251231+00000001217000DAMIAN+ESTEBAN HERNANDEZ           BAMBOO - BAMBOO                    N000000000100000                                                                                                                                                                                                                                                                                                                                                                                                                                                                                                                                                                                                                                                                                                                                                                                                                                                                                          
LIG00000000004802302550006842529501954       0000000179791041114580UGRIMPEURS (LES) - T01              852281700550000000000300000000000001128000000000001190000000000000694000+00000002082000+000000004340000385000001ON                20251231+00000002197000VOLPI-D+DOMON-J                    BAMBOO - BAMBOO                    N000000000100000                                                                                                                                                                                                                                                                                                                                                                                                                                                                                                                                                                                                                                                                                                                                                                                                                                                                                          
LIG00000000004802302550006842529501954       0000000189791041111787UMES COP'S - T16                    420016500550000000000400000000000001128000000000001190000000000000694000+00000002776000+000000004340000385000001ON                20251231+00000002929000CAZENOVE-C+FENECH-P                BAMBOO - BAMBOO                    N000000000100000                                                                                                                                                                                                                                                                                                                                                                                                                                                                                                                                                                                                                                                                                                                                                                                                                                                                                          
LIG00000000004802302550006842529501954       0000000199782915309102UMUSICOS  LES  - T01                532790300550000000000300000000000001128000000000001190000000000000638000+00000001914000+000000004900000434200001ON                20251231+00000002019000JANVIER+ERROC+JENFEVRE             BAMBOO - BAMBOO                    O000000000100000                                                                                                                                                                                                                                                                                                                                                                                                                                                                                                                                                                                                                                                                                                                                                                                                                                                                                          
LIG00000000004802302550006842529501954       0000000209791041103157UPETITS RUGBYMEN (LES) - POCHE - T06748163000550000000000200000000000000564000000000000595000000000000347000+00000000694000+000000002170000385000001ON                20251231+00000000732000FLOPPY+BEKA+BEKA+POUPARD           BAMBOO - BAMBOO                    N000000000100000                                                                                                                                                                                                                                                                                                                                                                                                                                                                                                                                                                                                                                                                                                                                                                                                                                                                                          
LIG00000000004802302550006842529501954       0000000219782818983577UPOCHE - FOOTMANIACS (LES PETITS) - 522924400550000000000100000000000001507000000000001590000000000000927000+00000000927000+000000005800000385000001ON                20251231+00000000978000COLLECTIF                          BAMBOO - BAMBOO                    N000000000100000                                                                                                                                                                                                                                                                                                                                                                                                                                                                                                                                                                                                                                                                                                                                                                                                                                                                                          
LIG00000000004802302550006842529501954       0000000229782818984239UPOCHE - FOOTMANIACS (LES PETITS) - 319386200550000000000200000000000000564000000000000595000000000000347000+00000000694000+000000002170000385000001ON                20251231+00000000732000CAZENOVE-C+SAIVE-O                 BAMBOO - BAMBOO                    N000000000100000                                                                                                                                                                                                                                                                                                                                                                                                                                                                                                                                                                                                                                                                                                                                                                                                                                                                                          
LIG00000000004802302550006842529501954       0000000239782818985618UPOCHE - FOOTMANIACS (LES PETITS) - 319373900550000000000100000000000000564000000000000595000000000000347000+00000000347000+000000002170000385000001ON                20251231+00000000366000CAZENOVE-C+SAIVE-O                 BAMBOO - BAMBOO                    N000000000100000                                                                                                                                                                                                                                                                                                                                                                                                                                                                                                                                                                                                                                                                                                                                                                                                                                                                                          
LIG00000000004802302550006842529501954       0000000249782818978580UPOCHE - PETITS RUGBYMEN  LES  - T01545205200550000000000100000000000000564000000000000595000000000000347000+00000000347000+000000002170000385000001ON                20251231+00000000366000BEKA+POUPARD                       BAMBOO - BAMBOO                    N000000000100000                                                                                                                                                                                                                                                                                                                                                                                                                                                                                                                                                                                                                                                                                                                                                                                                                                                                                          
LIG00000000004802302550006842529501954       0000000259782818978597UPOCHE - PETITS RUGBYMEN  LES  - T02545229800550000000000100000000000000564000000000000595000000000000347000+00000000347000+000000002170000385000001ON                20251231+00000000366000BEKA+POUPARD                       BAMBOO - BAMBOO                    N000000000100000                                                                                                                                                                                                                                                                                                                                                                                                                                                                                                                                                                                                                                                                                                                                                                                                                                                                                          
LIG00000000004802302550006842529501954       0000000269782818978603UPOCHE - PETITS RUGBYMEN  LES  - T03545266700550000000000200000000000000564000000000000595000000000000347000+00000000694000+000000002170000385000001ON                20251231+00000000732000BEKA+POUPARD                       BAMBOO - BAMBOO                    N000000000100000                                                                                                                                                                                                                                                                                                                                                                                                                                                                                                                                                                                                                                                                                                                                                                                                                                                                                          
LIG00000000004802302550006842529501954       0000000279782818978610UPOCHE - PETITS RUGBYMEN  LES  - T04545279000550000000000100000000000000564000000000000595000000000000347000+00000000347000+000000002170000385000001ON                20251231+00000000366000BEKA+POUPARD                       BAMBOO - BAMBOO                    N000000000100000                                                                                                                                                                                                                                                                                                                                                                                                                                                                                                                                                                                                                                                                                                                                                                                                                                                                                          
LIG00000000004802302550006842529501954       0000000289782818978627UPOCHE - PETITS RUGBYMEN  LES  - T05545303600550000000000100000000000000564000000000000595000000000000347000+00000000347000+000000002170000385000001ON                20251231+00000000366000BEKA+POUPARD                       BAMBOO - BAMBOO                    N000000000100000                                                                                                                                                                                                                                                                                                                                                                                                                                                                                                                                                                                                                                                                                                                                                                                                                                                                                          
LIG00000000004802302550006842529501954       0000000299791041104222UPOCHE - PETITS RUGBYMEN (LES) - COM115940300550000000000100000000000001507000000000001590000000000000927000+00000000927000+000000005800000385000001ON                20251231+00000000978000COLLECTIF                          BAMBOO - BAMBOO                    N000000000100000                                                                                                                                                                                                                                                                                                                                                                                                                                                                                                                                                                                                                                                                                                                                                                                                                                                                                          
LIG00000000004802302550006842529501954       0000000309782912715128UPROFS  LES  - T01                  532700200550000000000100000000000001128000000000001190000000000000680000+00000000680000+000000004480000397300001ON                20251231+00000000717000PICA+ERROC                         BAMBOO - BAMBOO                    O000000000100000                                                                                                                                                                                                                                                                                                                                                                                                                                                                                                                                                                                                                                                                                                                                                                                                                                                                                          
LIG00000000004802302550006842529501954       0000000319782912715241UPROFS  LES  - T02                  532701000550000000000300000000000001128000000000001190000000000000694000+00000002082000+000000004340000385000001ON                20251231+00000002197000PICA+ERROC                         BAMBOO - BAMBOO                    N000000000100000                                                                                                                                                                                                                                                                                                                                                                                                                                                                                                                                                                                                                                                                                                                                                                                                                                                                                          
LIG00000000004802302550006842529501954       0000000329782912715517UPROFS  LES  - T04                  532739000550000000000100000000000001128000000000001190000000000000694000+00000000694000+000000004340000385000001ON                20251231+00000000732000PICA+ERROC                         BAMBOO - BAMBOO                    N000000000100000                                                                                                                                                                                                                                                                                                                                                                                                                                                                                                                                                                                                                                                                                                                                                                                                                                                                                          
LIG00000000004802302550006842529501954       0000000339782350783505UPROFS  LES  - T05                  585173800550000000000200000000000001128000000000001190000000000000694000+00000001388000+000000004340000385000001ON                20251231+00000001464000PICA+ERROC                         BAMBOO - BAMBOO                    N000000000100000                                                                                                                                                                                                                                                                                                                                                                                                                                                                                                                                                                                                                                                                                                                                                                                                                                                                                          
LIG00000000004802302550006842529501954       0000000349782915309157UPROFS  LES  - T06                  532795200550000000000100000000000001128000000000001190000000000000694000+00000000694000+000000004340000385000001ON                20251231+00000000732000PICA+ERROC                         BAMBOO - BAMBOO                    N000000000100000                                                                                                                                                                                                                                                                                                                                                                                                                                                                                                                                                                                                                                                                                                                                                                                                                                                                                          
LIG00000000004802302550006842529501954       0000000359782915309706UPROFS  LES  - T07                  580295400550000000000100000000000001128000000000001190000000000000694000+00000000694000+000000004340000385000001ON                20251231+00000000732000PICA+ERROC+GUENARD                 BAMBOO - BAMBOO                    N000000000100000                                                                                                                                                                                                                                                                                                                                                                                                                                                                                                                                                                                                                                                                                                                                                                                                                                                                                          
LIG00000000004802302550006842529501954       0000000369782915309713UPROFS  LES  - T08                  580296200550000000000100000000000001128000000000001190000000000000694000+00000000694000+000000004340000385000001ON                20251231+00000000732000PICA+ ERROC+GUENARD                BAMBOO - BAMBOO                    N000000000100000                                                                                                                                                                                                                                                                                                                                                                                                                                                                                                                                                                                                                                                                                                                                                                                                                                                                                          
LIG00000000004802302550006842529501954       0000000379782350781198UPROFS  LES  - T09                  580963700550000000000200000000000001128000000000001190000000000000694000+00000001388000+000000004340000385000001ON                20251231+00000001464000PICA+ERROC+GUENARD                 BAMBOO - BAMBOO                    N000000000100000                                                                                                                                                                                                                                                                                                                                                                                                                                                                                                                                                                                                                                                                                                                                                                                                                                                                                          
LIG00000000004802302550006842529501954       0000000389782350782966UPROFS  LES  - T10                  585128200550000000000100000000000001128000000000001190000000000000694000+00000000694000+000000004340000385000001ON                20251231+00000000732000PICA+ERROC                         BAMBOO - BAMBOO                    N000000000100000                                                                                                                                                                                                                                                                                                                                                                                                                                                                                                                                                                                                                                                                                                                                                                                                                                                                                          
LIG00000000004802302550006842529501954       0000000399782350784540UPROFS  LES  - T11                  580910800550000000000100000000000001128000000000001190000000000000694000+00000000694000+000000004340000385000001ON                20251231+00000000732000ERROC+PICA                         BAMBOO - BAMBOO                    N000000000100000                                                                                                                                                                                                                                                                                                                                                                                                                                                                                                                                                                                                                                                                                                                                                                                                                                                                                          
LIG00000000004802302550006842529501954       0000000409782818900369UPROFS  LES  - T13                  582984100550000000000100000000000001128000000000001190000000000000694000+00000000694000+000000004340000385000001ON                20251231+00000000732000PICA+ ERROC                        BAMBOO - BAMBOO                    N000000000100000                                                                                                                                                                                                                                                                                                                                                                                                                                                                                                                                                                                                                                                                                                                                                                                                                                                                                          
LIG00000000004802302550006842529501954       0000000419782818906996UPROFS  LES  - T14                  583378500550000000000100000000000001128000000000001190000000000000694000+00000000694000+000000004340000385000001ON                20251231+00000000732000PICA+ERROC                         BAMBOO - BAMBOO                    N000000000100000                                                                                                                                                                                                                                                                                                                                                                                                                                                                                                                                                                                                                                                                                                                                                                                                                                                                                          
LIG00000000004802302550006842529501954       0000000429782818933541UPROFS  LES  - T17                  414465100550000000000100000000000001128000000000001190000000000000694000+00000000694000+000000004340000385000001ON                20251231+00000000732000ERROC+PICCA+LETURGIE               BAMBOO - BAMBOO                    N000000000100000                                                                                                                                                                                                                                                                                                                                                                                                                                                                                                                                                                                                                                                                                                                                                                                                                                                                                          
LIG00000000004802302550006842529501954       0000000439782818940365UPROFS  LES  - T18                  632466200550000000000100000000000001128000000000001190000000000000694000+00000000694000+000000004340000385000001ON                20251231+00000000732000ERROC+LETURGIE -S                  BAMBOO - BAMBOO                    N000000000100000                                                                                                                                                                                                                                                                                                                                                                                                                                                                                                                                                                                                                                                                                                                                                                                                                                                                                          
LIG00000000004802302550006842529501954       0000000449782818942543UPROFS  LES  - T19                  725319700550000000000100000000000001128000000000001190000000000000694000+00000000694000+000000004340000385000001ON                20251231+00000000732000ERROC+LETURGIE-S                   BAMBOO - BAMBOO                    N000000000100000                                                                                                                                                                                                                                                                                                                                                                                                                                                                                                                                                                                                                                                                                                                                                                                                                                                                                          
LIG00000000004802302550006842529501954       0000000459782818967171UPROFS  LES  - T22                  403580000550000000000200000000000001128000000000001190000000000000694000+00000001388000+000000004340000385000001ON                20251231+00000001464000ERROC+STI+LETURGIE-S               BAMBOO - BAMBOO                    N000000000100000                                                                                                                                                                                                                                                                                                                                                                                                                                                                                                                                                                                                                                                                                                                                                                                                                                                                                          
LIG00000000004802302550006842529501954       0000000469782818975961UPROFS  LES  - T23                  369910200550000000000100000000000001128000000000001190000000000000694000+00000000694000+000000004340000385000001ON                20251231+00000000732000STI+ERROC+LETURGIE                 BAMBOO - BAMBOO                    N000000000100000                                                                                                                                                                                                                                                                                                                                                                                                                                                                                                                                                                                                                                                                                                                                                                                                                                                                                          
LIG00000000004802302550006842529501954       0000000479791041115334UPROFS (LES) - T01 - 25 ANS         171952500550000000000100000000000001128000000000001190000000000000694000+00000000694000+000000004340000385000001ON                20251231+00000000732000ERROC+PICA+GUENARD-J               BAMBOO - BAMBOO                    N000000000100000                                                                                                                                                                                                                                                                                                                                                                                                                                                                                                                                                                                                                                                                                                                                                                                                                                                                                          
LIG00000000004802302550006842529501954       0000000489782818986424UPROFS (LES) - T24                  522973600550000000000100000000000001128000000000001190000000000000694000+00000000694000+000000004340000385000001ON                20251231+00000000732000ERROC+STI+LETURGIE-S               BAMBOO - BAMBOO                    N000000000100000                                                                                                                                                                                                                                                                                                                                                                                                                                                                                                                                                                                                                                                                                                                                                                                                                                                                                          
